:100000000C9468000C9495030C946E030C944005BA
:100010000C9440050C9440050C94A60A0C94900096
:100020000C9490000C9490000C9490000C947F041D
:100030000C9490000C9490000C9490000C94900000
:100040000C9424030C9490000C94300D0C940A0D25
:100050000C9490000C9490000C9490000C949000E0
:100060000C94BA050C9490001F1C1F1E1F1E1F1F0E
:100070001E1F1E1F00000000240027002A00000091
:100080000000250028002B000000000023002600AF
:10009000290004040404040404040202020202020B
:1000A000030303030303010204081020408001023C
:1000B00004081020010204081020000000080002BB
:1000C0000100000304070000000000000000620DB2
:1000D00011241FBECFEFD8E0DEBFCDBF11E0A0E0FE
:1000E000B1E0EEE8F1E202C005900D92A439B1074B
:1000F000D9F724E0A4E9B1E001C01D92AA39B20702
:10010000E1F710E0C8E6D0E004C02197FE010E94AC
:100110004110C736D107C9F70E94110E0C94C510C3
:100120000C9400003FB7F89480913303909134030E
:10013000A0913503B091360326B5A89B05C02F3F8B
:1001400019F00196A11DB11D3FBFBA2FA92F982FFD
:100150008827820F911DA11DB11DBC01CD0142E078
:10016000660F771F881F991F4A95D1F70895089544
:1001700083FF02C098E2892787FD02C0806401C026
:1001800080E094B7977F94BFF89490916000986155
:1001900090936000809360007894089520912A03E2
:1001A00030912B032817390771F49091290380911E
:1001B0002803981741F0E0912903F0E0E851FD4F42
:1001C000808190E008958FEF9FEF089508951F9329
:1001D000CF93DF93DC015C962D913C915D972115C7
:1001E000310539F481E090E013969C938E93129739
:1001F0003DC05196ED91FC91529750969C9150972D
:10020000892F80951FB75E964C915E9741FB7727AB
:1002100070F941FD6095F8944081772311F0492BE6
:1002200001C048234083E9012197F1F748E050815C
:1002300060FF02C0592B01C058235083E901219768
:10024000F1F76695415099F7772321F09081892342
:10025000808303C08081982B90831FBF5C968D9113
:100260009C915D970197F1F721E030E0C901DF91A2
:10027000CF911F91089520912A0330912B032817C5
:10028000390771F4809128032091290390E0805C64
:100290009F4F821B910960E470E00E94191008953D
:1002A00080E090E0089520912A0330912B032817D5
:1002B0003907B9F49091290380912803981789F0A0
:1002C000E0912903F0E0E851FD4F8081209129035E
:1002D00030E02F5F3F4F2F7333272093290390E0A7
:1002E00008958FEF9FEF0895E0912A03F0912B037B
:1002F000E817F90769F4A389B4899C9185898095E9
:1003000089238C9310922B0310922A0381E0089585
:1003100080E0089585ED8093BC008091BC0084FD51
:10032000FCCF1092C202089540919C02262F30E02B
:10033000240F311D21323105DCF42091C20224301A
:10034000C9F4FC0180E090E0861758F430919C02DB
:100350002191DC01A658BD4FA30FB11D2C9301962E
:10036000F3CF80919C02680F60939C0280E0089517
:1003700081E0089582E008950895E09179028091E6
:100380007802E81730F4F0E0E85AFD4F808190E001
:1003900008958FEF9FEF08959091790280917802F0
:1003A000981750F4E92FF0E0E85AFD4F208130E033
:1003B0009F5F9093790202C02FEF3FEFC90108952C
:1003C0008091780290E020917902821B9109089532
:1003D000CF92DF92EF92FF920F931F93CF93DF9311
:1003E0007C01262F972F8A0180915702882391F054
:1003F000C62FD72F6E01C40ED51ECC15DD0571F0AA
:100400006991D701ED91FC910190F081E02DC70138
:100410000995F3CF642F822F0E949401C801DF91C8
:10042000CF911F910F91FF90EF90DF90CF900895A3
:10043000CF93DF931F92CDB7DEB769832091570228
:100440002223D1F020915602203240F021E030E00A
:10045000FC013383228380E090E015C08091550237
:10046000E82FF0E0EB5CFD4F998190838F5F8093E4
:1004700055028093560205C061E0CE0101960E94AC
:10048000940181E090E00F90DF91CF9108950E9458
:100490004710833081F028F4813099F08230A1F048
:1004A00008958730A9F08830B9F08430D1F4809174
:1004B00080008F7D03C0809180008F7780938000C3
:1004C000089584B58F7702C084B58F7D84BD08956B
:1004D0008091B0008F7703C08091B0008F7D8093B2
:1004E000B00008951F93CF93DF93282F30E0F901D8
:1004F000E654FF4F8491F901EA55FF4FD491F90179
:10050000EE56FF4FC491CC23C9F0162F81110E94E3
:100510004902EC2FF0E0EE0FFF1FE258FF4FA591CC
:10052000B4918FB7F894111105C09C91ED2FE0950F
:10053000E92302C0EC91ED2BEC938FBFDF91CF91BB
:100540001F910895CF93DF9390E0FC01EA55FF4F90
:100550002491FC01EE56FF4F8491882361F190E0D5
:10056000880F991FFC01EC58FF4FC591D491FC01F5
:10057000E258FF4FA591B491611109C09FB7F8945B
:100580008881209582238883EC912E230BC06230D2
:1005900061F49FB7F8943881822F809583238883F4
:1005A000EC912E2B2C939FBF06C08FB7F894E88157
:1005B0002E2B28838FBFDF91CF9108958F929F922A
:1005C000AF92BF92CF92DF92EF92FF926B017C01CC
:1005D0000E9492004B015C01C114D104E104F104BA
:1005E000F1F00E949200DC01CB0188199909AA0957
:1005F000BB09883E9340A105B10570F321E0C21A02
:10060000D108E108F10888EE880E83E0981EA11C4D
:10061000B11CC114D104E104F10419F7DDCFFF903E
:10062000EF90DF90CF90BF90AF909F908F90089504
:100630002FB7F89460912F037091300380913103AC
:10064000909132032FBF08951F920F920FB60F9211
:1006500011242F933F938F939F93AF93BF938091D8
:100660002F0390913003A0913103B0913203309168
:100670002E0323E0230F2D3720F40196A11DB11D79
:1006800005C026E8230F0296A11DB11D20932E035D
:1006900080932F0390933003A0933103B0933203E0
:1006A0008091330390913403A0913503B0913603C8
:1006B0000196A11DB11D8093330390933403A09341
:1006C0003503B0933603BF91AF919F918F913F91C6
:1006D0002F910F900FBE0F901F9018951F920F92A1
:1006E0000FB60F9211242F933F934F935F936F9305
:1006F0007F938F939F93AF93BF93EF93FF93E0917B
:100700000201F09103010995FF91EF91BF91AF9123
:100710009F918F917F916F915F914F913F912F9119
:100720000F900FBE0F901F9018951F920F920FB64B
:100730000F9211242F933F934F935F936F937F9367
:100740008F939F93AF93BF93EF93FF93E09100013B
:10075000F09101010995FF91EF91BF91AF919F91A8
:100760008F917F916F915F914F913F912F910F905A
:100770000FBE0F901F901895EF92FF920F931F934B
:10078000CF93DF93EC0139818881682F70E04A8133
:1007900050E0E8E6F0E091E09E1B292F2E0F231792
:1007A00028F42491420F511D3196F7CF333020F0B9
:1007B000837011F44F5F5F4F8DE691E0689F900169
:1007C000699F300D789F300D1124215031096D5FE4
:1007D0007F4F7695679576956795260F371F240F7F
:1007E000351FA8E1B0E00E94B6102B817B018C017F
:1007F000E20EF11C011D111DA8019701ACE3B0E050
:100800000E94A3102C817B018C01E20EF11C011DC2
:10081000111DA80197010E94A3102D81DC01CB01BD
:10082000820F911DA11DB11DBC01CD0160587C4BF3
:100830008249974CDF91CF911F910F91FF90EF90DC
:100840000895CF92DF92EF92FF92CF93DF93EC0166
:10085000CB01BA01605873448D4698432CE3C22EF5
:10086000D12CE12CF12CA70196010E9462106D831E
:10087000CA01B901A70196010E9462106C83CA01E6
:10088000B90128E130E040E050E00E9462106B8343
:10089000188263E97EEF8881482F437091E009F068
:1008A00090E0492F50E0FA01E359FE4F2E173F0721
:1008B00040F0FB01E41BF50B2E0F3F1F8F5F888379
:1008C000EACF81E089838981E82FF0E0E959FF4F81
:1008D000E491992319F0823009F4EF5FF0E02E17CC
:1008E0003F0720F02E1B3F0B8F5FECCF2F5F2A833B
:1008F000DF91CF91FF90EF90DF90CF9008951F92FE
:100900000F920FB60F9211242F933F934F935F9343
:100910006F937F938F939F93AF93BF93EF93FF93C7
:1009200080912D0387FF05C01092850010928400EE
:100930001BC020912D03022E000C330B80912C0341
:1009400090E02817390784F480912D03082E000CBD
:10095000990BFC01EE0FFF1F8E0F9F1FFC01E95C3E
:10096000FC4F808186FD15C080912D038F5F8093A1
:100970002D0320912D03022E000C330B80912C03AC
:1009800090E028173907C4F480912D038C3064F16E
:1009900013C080912D03082E000C990BFC01EE0F63
:1009A000FF1F8E0F9F1FFC01E95CFC4F808160E000
:1009B0008F730E947202D8CF80918400909185003D
:1009C000049680349C4918F480E49CE905C0809129
:1009D000840090918500049690938900809388000C
:1009E0008FEF80932D033BC02091840030918500D0
:1009F00080912D03082E000C990BFC01EE0FFF1FB8
:100A00008E0F9F1FFC01E95CFC4F81819281820F58
:100A1000931F909389008093880080912D03082E66
:100A2000000C990BFC01EE0FFF1F8E0F9F1FFC01A6
:100A3000E95CFC4F808186FF12C080912D03082E57
:100A4000000C990BFC01EE0FFF1F8E0F9F1FFC0186
:100A5000E95CFC4F808161E08F730E947202FF911C
:100A6000EF91BF91AF919F918F917F916F915F9126
:100A70004F913F912F910F900FBE0F901F9018959F
:100A80001F920F920FB60F9211242F933F934F9303
:100A90005F936F937F938F939F93AF93BF93EF93E6
:100AA000FF93E0912A03F0912B03309709F451C092
:100AB000968DA685B785858591FF04C09C91892375
:100AC00029F447C09C91892309F043C0A389B489C4
:100AD0009C918589809589238C9386899789019734
:100AE000F1F7608D718DA685B785558538E020E0DA
:100AF000CB010197F1F7822F90E095958795282FEC
:100B00004C91452309F02068315091F7868D81FD85
:100B100020958091280390E001968F73992730915A
:100B20002903381749F0A0912803B0E0A851BD4F20
:100B30002C938093280303C0868D8160868F828DDD
:100B4000938D0197F1F7A389B4899C918589892BAD
:100B50008C93FF91EF91BF91AF919F918F917F9176
:100B60006F915F914F913F912F910F900FBE0F901A
:100B70001F9018951F920F920FB60F9211242F936A
:100B80003F934F935F936F937F938F939F93AF9315
:100B9000BF93EF93FF938091B900887F803609F46B
:100BA0009CC068F5883209F45BC090F4803109F488
:100BB00054C038F4882309F4F6C0883009F44DC0D5
:100BC000F6C0883109F44CC0803209F45DC0EFC032
:100BD000803409F468C048F4803309F455C0883380
:100BE00009F0E5C08093C102D8C0803509F44FC038
:100BF000883509F45DC0883409F0D9C0D6C0883979
:100C000009F4C7C0A8F4883709F467C038F48836F7
:100C100009F463C0803709F460C0C9C0883809F49A
:100C2000B8C0803909F45FC0803809F0C0C05BC02B
:100C3000803B09F486C038F4803A09F466C0883AEB
:100C400009F47FC0B4C0803C09F4A7C0883C09F413
:100C5000A4C0883B09F48AC0AAC08091E70210C0F2
:100C60009091E6028091E502981770F5E091E60216
:100C700081E08E0F8093E602F0E0EB53FD4F808120
:100C80008093BB0085EC86C08093C1028EC0E0914A
:100C9000E60281E08E0F8093E6028091BB00F0E0D7
:100CA000EB53FD4F80839091E6028091E5026EC088
:100CB000E091E60281E08E0F8093E6028091BB0016
:100CC000F0E0EB53FD4F80838091C40281116DC031
:100CD00081E08093C30284EA61C083E08093C20212
:100CE0001092C002CFCF8091C002803208F051C074
:100CF000E091C00281E08E0F8093C0028091BB0022
:100D0000F0E0E056FD4F8083BDCF85EC8093BC00C2
:100D10001092C2028091C002803230F4E091C00291
:100D2000F0E0E056FD4F10826091C00270E0E0916B
:100D30009E02F0919F0280EA92E009951092C00213
:100D400036C084E08093C20210929D0210929C02F1
:100D5000E0919A02F0919B02099580919C02811189
:100D600005C081E080939C0210927A02E0919D027E
:100D700081E08E0F80939D02F0E0E658FD4F808168
:100D80008093BB0090919D0280919C02981708F47B
:100D900079CF85E88093BC000AC085EC8093BC00C5
:100DA0001092C20204C01092C1020E948A01FF91F7
:100DB000EF91BF91AF919F918F917F916F915F91D3
:100DC0004F913F912F910F900FBE0F901F9018954C
:100DD000CF92DF92EF92FF920F931F93CF93DF9307
:100DE000CDB7DEB7A5970FB6F894DEBF0FBECDBF67
:100DF0008C011C821B8288EE93E0A0E0B0E08D8322
:100E00009E83AF83B8878CE091E09A838983188EA4
:100E10001F8A1A8E198E1C8E1B8E1E8E1D8E6F8D34
:100E20006E7F6D7F6F8F6695617081E0682783E0CC
:100E30000E94720261E083E00E94A20299EAC92E38
:100E400090E0D92EF6018491898B25E9E22E20E0ED
:100E5000F22EF701849190E0880F991F82589F4FDE
:100E6000FC01259134913B8B2A8B60E083E00E944A
:100E7000A2028F8D81FD04C061E083E00E947202B6
:100E800083E08D87F601C490CE86F701E490EE2DC5
:100E9000F0E0EE0FFF1FE857FF4F85919491988B7C
:100EA0008F878CE191E09A83898361E083E00E94DF
:100EB000A2021C8E1B8E1A8E198E188E1F8A8DE927
:100EC00091E09E8F8D8F8D85863108F047C02DEB88
:100ED00030E0388F2F8B2BE931E03A8F298F2CE2CD
:100EE00031E03C8F2B8F20916800883050F031E04A
:100EF0008E3008F430E091E001C0990F3A95EAF79E
:100F000001C094E0922B90936800883028F08E30D6
:100F100030F02CE630E005C02DE630E002C02BE6D4
:100F200030E03D8B2C8B883030F491E001C0990F7C
:100F30008A95EAF70EC0282F30E08E3018F428503A
:100F4000310902C02E50310991E001C0990F2A9554
:100F5000EAF79E8B8DE991E00197F1F78B8D9C8DDF
:100F60009E012F5F3F4F7901892BE1F080912A0389
:100F700090912B0382179307A9F0009711F00E941C
:100F800074018F8D8E7F8F8F10922803109229030A
:100F9000F0922B03E0922A03EC89FD8990818E89DF
:100FA000892B808382E08BA380E18CA31DA2C701E3
:100FB0000E94640C6CE7C7010E94E70069E8C70162
:100FC0000E94E70065E070E080E090E00E94DE02B1
:100FD000B801C7010E94D40C023011051CF060E674
:100FE00071E00BC00130110519F46EE671E005C027
:100FF000C7010E94640C6CE771E0C7010E94760C87
:101000008CE091E09A838983C7010E947401A596C0
:101010000FB6F894DEBF0FBECDBFDF91CF911F9109
:101020000F91FF90EF90DF90CF900895CF92DF92D5
:10103000EF92FF920F931F93CF93DF93EC011092E7
:101040007902109278021092550210925602109274
:10105000C20211E01093C4021092C30261E082E167
:101060000E94720261E083E10E9472028091B900E5
:101070008E7F8093B9008091B9008D7F8093B900F5
:1010800088E48093B80085E48093BC0061E081E14E
:101090000E94A20261E081E10E94720261E080E1AF
:1010A0000E94A20260E080E10E9472021093570247
:1010B00088E680933402109255021092560260E046
:1010C0008EE593E00E94180280915602813208F06A
:1010D00045C09091C2029111FCCF92E09093C20260
:1010E00091E09093C4029FEF9093C1021092E602A8
:1010F0008093E502A5E3B2E025EC32E0F9019E2FF2
:10110000921B981718F49D919193F9CF1092E702D2
:101110008091E702806D8093E7028091C302813065
:1011200061F41092C3028091E7028093BB0080912A
:10113000BC0083FDF8CF85EC01C085EE8093BC0038
:101140008091C2028230E1F38091C1028F3F31F081
:101150008091C102803211F08091C102109255023B
:1011600010925602109257028091C2028111FCCF58
:1011700081E08093C2028093C4029FEF9093C102EA
:101180001092E60296E09093E5028093E702809148
:10119000E702806D8093E7028091C302813061F4A1
:1011A0001092C3028091E7028093BB008091BC0043
:1011B00083FDF8CF85EC01C085EE8093BC00809163
:1011C000C2028130E1F38091E602873018F4809109
:1011D000E60201C087E0A5ECB2E028E532E0F901C3
:1011E0009E2F921B981718F49D919193F9CF10920E
:1011F0007902809378028EE593E00E94CC018F778C
:10120000982F92959F701AEF082F919F000D11242F
:101210008EE593E00E94CC019C01332794E0359544
:1012200027959A95E1F7F82E129FF00C11248EE580
:1012300093E00E94CC019C01332744E0359527952B
:101240004A95E1F7E82E129FE00C11248EE593E019
:101250000E94CC018EE593E00E94CC019C013327D3
:1012600054E0359527955A95E1F7D82E129FD00C6A
:1012700011248EE593E00E94CC019C01332764E0A9
:10128000359527956A95E1F7C82E129FC00C112459
:101290008EE593E00E94CC019C01332774E03595E4
:1012A00027957A95E1F7129F800D11248883C982D2
:1012B000DA82EB82FC820D8360E081E10E9472029F
:1012C000CE01DF91CF911F910F91FF90EF90DF90B2
:1012D000CF900895CF92DF92EF92FF92CF93C82FD5
:1012E00080912B0281111EC020912C032C30A0F480
:1012F00081E0820F80932C0320935B0330E0F9019F
:10130000EE0FFF1F2E0F3F1FF901E95CFC4F88EB2A
:101310009BE09283818303C08FEF80935B0381E026
:1013200080932B0280915B038C3008F051C061E008
:1013300087E00E94A20280915B03E82FF0E09F010A
:10134000220F331FE20FF31FE95CFC4F9081907C6A
:101350009760908310925C0310925D036CE00E9492
:101360000D102CE0829FB001112440E050E09A0162
:10137000260F371FF901EE0FFF1F2E0F3F1FF90138
:10138000E95CFC4F908196FD16C04F5F5F4F4C307B
:10139000510569F781110FC01092800082E080939F
:1013A00081001092850010928400B19A80916F00A4
:1013B000826080936F00E0915B03F0E0CF01880FC3
:1013C000991FE80FF91FE95CFC4F808180648083DE
:1013D000CC2319F080E090E002C084E690E00E9407
:1013E000E00B0E9418036B017C01DC01CB018C191E
:1013F0009D09AE09BF098D329140A105B10518F4D0
:101400000E941803F2CFE0915B03F0E0CF01880F58
:10141000991FE80FF91FE95CFC4F80818F7B808367
:10142000CF91FF90EF90DF90CF900895AF92BF9251
:10143000CF92DF92EF92FF920F931F93CF93DF93A0
:101440007C0180E00E946A0900E038EAC32E3EED8C
:10145000D32E48E0A42EB12C802F90E08E159F054E
:101460000CF063C09701281B390BC9010E94E806E4
:10147000C8EADEEDCE0110E08032910530F01F5F4A
:10148000193019F096958795F7CF10923302812F76
:101490000E94B80020917A0080917A008F77809323
:1014A0007A0083B7817F846083BFF89483B78160BB
:1014B00083BF85B7806685BF95B79F79906495BFD8
:1014C0007894889583B78E7F83BF20937A008FEFBF
:1014D0000E94B800C50102C0880F991F1A95E2F753
:1014E000C81BD90B20913302222331F0C81BD90B22
:1014F000C031D10508F0BECF80912F039091300309
:10150000A0913103B091320396012C1B3D0B820F49
:10151000931FA11DB11D80932F0390933003A093BF
:101520003103B09332030F5F97CF80E090E00E94C9
:10153000E80681E0DF91CF911F910F91FF90EF902E
:10154000DF90CF90BF90AF900C946A091F920F92DA
:101550000FB60F9211248F93809133028F5F809387
:1015600033028F910F900FBE0F901F901895E1EAF4
:10157000F3E0A089B18982E08C93A089B1891C92A3
:10158000A485B5851C92A685B78580E18C93108EC5
:10159000A489B58986E08C93A289B3898C918061F6
:1015A0008C93A289B3898C9188608C93A289B3892A
:1015B0008C9180688C930288F389E02D80818F7DE7
:1015C00080830895DC01ED91FC910190F081E02D84
:1015D0000994CF92DF92EF92FF920F931F93CF93D4
:1015E000DF936C017A018B01C0E0D0E0CE15DF05FE
:1015F00089F0D8016D918D01D601ED91FC9101909A
:10160000F081E02DC6010995892B11F47E0102C0FD
:101610002196ECCFC701DF91CF911F910F91FF90E1
:10162000EF90DF90CF900895FC01918D828D9817F7
:1016300061F0828DDF01A80FB11D5D968C91928DB6
:101640009F5F9F73928F90E008958FEF9FEF0895B3
:10165000FC01918D828D981731F0828DE80FF11D7C
:10166000858D90E008958FEF9FEF0895FC01918D97
:10167000228D892F90E0805C9F4F821B91098F7390
:101680009927089581EA93E00E94360B21E0892B87
:1016900009F420E0822F0895FC01848DDF01A80F5A
:1016A000B11DA35ABF4F2C91848D90E001968F738A
:1016B0009927848FA689B7892C93A089B1898C91A9
:1016C00080648C93938D848D981306C00288F3896F
:1016D000E02D80818F7D80830895EF92FF920F939C
:1016E0001F93CF93DF93EC0181E0888F9B8D8C8DCE
:1016F000981305C0E889F989808185FD24C0F62EFC
:101700000B8D10E00F5F1F4F0F731127E02E8C8D94
:10171000E8120CC00FB607FCFACFE889F98980817E
:1017200085FFF5CFCE010E944C0BF1CF8B8DFE01D2
:10173000E80FF11DE35AFF4FF0820B8FEA89FB8916
:101740008081806207C0EE89FF896083E889F9891A
:1017500080818064808381E090E0DF91CF911F9150
:101760000F91FF90EF900895CF93DF93EC01888D58
:101770008823C9F0EA89FB89808185FD05C0A88995
:10178000B9898C9186FD0FC00FB607FCF5CF80811B
:1017900085FFF2CFA889B9898C9185FFEDCFCE0165
:1017A0000E944C0BE7CFDF91CF91089580E090E04D
:1017B000892B29F00E94420B81110C94000008959E
:1017C000CF92DF92EF92FF92DC01A03282E0B80765
:1017D0000CF03EC0B7FD06C0A53BB1052CF0A4EB54
:1017E000B0E002C0A0E0B0E080915C0328E830E007
:1017F0006901C81AD10887FDD394CC0CDD1CCC0C30
:10180000DD1C0D2C000CEE08FF0880915D0328E51F
:1018100032E0281B310987FD3395220F331F220F39
:10182000331FA901330F660B770B9A01AB012C19FB
:101830003D094E095F090E94AE1024EB30E040E004
:1018400050E00E948410C20ED31EE41EF51ED60185
:1018500090915B039C3098F580915C0348E850E0E0
:10186000481B510987FD5395440F551F440F551FC1
:10187000A417B5078CF080915D0328E532E0281BA2
:10188000310987FD3395220F331F220F331FAD011E
:101890002A173B070CF4A90142505109440F551F68
:1018A0002FB7F894892F90E0FC01EE0FFF1F8E0FE9
:1018B0009F1FFC01E95CFC4F528341832FBFFF90C7
:1018C000EF90DF90CF900895CF93DF93EC016EEF10
:1018D0000E94E70061E0CE010E94E70065E070E051
:1018E00080E090E0DF91CF910C94DE0261157105EC
:1018F00079F0FB0101900020E9F73197AF01461B19
:10190000570BDC01ED91FC910280F381E02D0994ED
:1019100080E090E008954F925F926F927F92EF92F5
:10192000FF920F931F93CF93DF93CDB7DEB7A197AD
:101930000FB6F894DEBF0FBECDBF7C01FA01CB011C
:1019400019A2223008F42AE08E010F5D1F4F422EAB
:10195000512C612C712CBF01A30192010E946210D5
:10196000F901CA01015011096A3014F4605D01C027
:10197000695CD8016C93232B242B252B61F7B801CC
:10198000C7010E94760CA1960FB6F894DEBF0FBE79
:10199000CDBFDF91CF911F910F91FF90EF907F907E
:1019A0006F905F904F900895CF92DF92EF92FF92E9
:1019B0000F931F93CF93DF936B01770FEE08FF0810
:1019C000F7FE1BC0EC016DE20E94E20A8C01442785
:1019D0005527BA014C195D096E097F092AE0CE012D
:1019E0000E948B0C800F911FDF91CF911F910F915F
:1019F000FF90EF90DF90CF9008952AE0B701A60105
:101A0000DF91CF911F910F91FF90EF90DF90CF90DA
:101A10000C948B0C1F920F920FB60F9211242F93E0
:101A20003F934F935F936F937F938F939F93AF9366
:101A3000BF93EF93FF9381EA93E00E944C0BFF91D9
:101A4000EF91BF91AF919F918F917F916F915F9136
:101A50004F913F912F910F900FBE0F901F901895AF
:101A60001F920F920FB60F9211242F938F939F9373
:101A7000EF93FF93E091B103F091B2038081E09185
:101A8000B703F091B80382FD12C090818091BA0330
:101A90008F5F8F732091BB03821751F0E091BA03DF
:101AA000F0E0EF55FC4F958F8093BA0301C0808121
:101AB000FF91EF919F918F912F910F900FBE0F90FB
:101AC0001F901895CF93DF931092A4031092A30355
:101AD00088EE93E0A0E0B0E08093A5039093A60386
:101AE000A093A703B093A8038CE291E09093A20384
:101AF0008093A10385EC90E09093AE038093AD03B7
:101B000084EC90E09093B0038093AF0380EC90E07E
:101B10009093B2038093B10381EC90E09093B4036F
:101B20008093B30382EC90E09093B6038093B50367
:101B300086EC90E09093B8038093B7031092BA03B9
:101B40001092BB031092BC031092BD03AEE3B4E04D
:101B5000FD018285807C828716821782108611861D
:101B60001282138214821582118210823B9684E0C5
:101B7000E038F80771F71092800420E030E09BE035
:101B8000929FF001939FF00D1124E85BFB4F808141
:101B9000482F4F7089F52F5F3F4F1B962630310538
:101BA00079F7109261031092600388EE93E0A0E051
:101BB000B0E08093620390936303A0936403B093B7
:101BC00065038CE391E090935F0380935E0340E0B4
:101BD00050E0BA0184E994E00E942104C2E8D4E014
:101BE00040E050E0BA01CE010E942104269684E034
:101BF000C439D807A9F712C0807E808311961C9241
:101C00001E9212961D921D921D921C921597169669
:101C10001D921D921D921C921997BDCFDF91CF91FD
:101C20000895CF93DF93CDB7DEB762970FB6F894E0
:101C3000DEBF0FBECDBF789484B5826084BD84B50D
:101C4000816084BD85B5826085BD85B5816085BDB7
:101C500080916E00816080936E001092810080916F
:101C600081008260809381008091810081608093F7
:101C70008100809180008160809380008091B1001C
:101C800084608093B1008091B00081608093B00047
:101C900080917A00846080937A0080917A008260DB
:101CA00080937A0080917A00816080937A0080919D
:101CB0007A00806880937A001092C10010929D0390
:101CC00010929E0310929F031092A00310926B0338
:101CD00010926C0310926D0310926E0360ED77E02A
:101CE00080E090E00E94DE0281EA93E090939C0302
:101CF00080939B030E94B70A0E94180300916B0314
:101D000010916C0320916D0330916E03DC01CB01C7
:101D1000801B910BA20BB30BC297A105B10538F440
:101D200063E070E080E090E00E94DE02E5CF0E9478
:101D3000180360936B0370936C0380936D0390930F
:101D40006E0362E871E080919B0390919C030E9476
:101D5000760C6AE070E080E090E00E94DE0281E0B4
:101D600080936F0364E9E62E64E0F62E00E010E055
:101D7000C8010E944C10F70181937F010F5F1F4F34
:101D800006301105A9F7CE0101960E941608CE0172
:101D900001960E94BC034B015C0184E994E00E941F
:101DA000BC03681579058A059B0540F481E00E9413
:101DB0006A0980E090E00E94E8061BC084E994E094
:101DC0000E94BC034B015C01CE0101960E94BC0342
:101DD000A5019401261B370B480B590BCA01B90109
:101DE0002CE330E040E050E00E946210C9010E9404
:101DF000160A62E082E00E94A2022CEBA22E20E0F2
:101E0000B22E38EA832E30E0932E44E9642E40E06F
:101E1000742E5CE3252E312C412C512CF50184913C
:101E2000F4010491F3011491112379F081110E94BE
:101E30004902E12FF0E0EE0FFF1FE857FF4FA59199
:101E4000B4918C91082309F0E5C040E050E0BA015C
:101E5000CE010D960E942104CE0107960E9416081D
:101E6000CE0107960E94BC03AB01BC01405E534EFD
:101E70006F4F7F4FCE0101960E942104FE013196E3
:101E8000DE011D9686E001900D928A95E1F7FE0134
:101E90003D96A4E9B4E086E001900D928A95E1F7C1
:101EA00084E9E82E84E0F82E00E010E0F70161916B
:101EB0007F01C8010E9454100F5F1F4F06301105AB
:101EC000A9F7CE010D960E94BC036B017C01CE01E7
:101ED00007960E94BC03A7019601261B370B480BEF
:101EE000590BCA01B901A20191010E946210690156
:101EF0007A01CE0101960E9416080E94B70A498114
:101F000050E04053584F052E000C660B770B2AE02B
:101F100081EA93E00E948B0C6FE281EA93E00E94D9
:101F2000E20A4A8150E060E070E02AE081EA93E052
:101F30000E948B0C6FE281EA93E00E94E20A4B81DF
:101F400050E060E070E02AE081EA93E00E948B0CB0
:101F500060E281EA93E00E94E20A4C8150E060E096
:101F600070E02AE081EA93E00E948B0C6AE381EA48
:101F700093E00E94E20A4D8150E060E070E02AE0C8
:101F800081EA93E00E948B0C6AE381EA93E00E946D
:101F9000E20A4E8150E060E070E02AE081EA93E0DE
:101FA0000E948B0C61E971E081EA93E00E94760C5B
:101FB000B60181EA93E00E94D40C61E971E081EA04
:101FC00093E00E94760C81EA93E00E94B40BE091CA
:101FD000B303F091B40380818F7E8083E091B303DB
:101FE000F091B4038081877F8083E091B303F09107
:101FF000B40380818F778083E091B303F091B403C1
:1020000080818F7D80838091BB038093BA03C6015A
:102010000E94160A0E94D60B01CF991B79E004C0DA
:10202000991F961708F0961B881F7A95C9F7809517
:10203000089597FB072E16F4009407D077FD09D07A
:102040000E942D1007FC05D03EF4909581959F4F7E
:102050000895709561957F4F0895AA1BBB1B51E1B0
:1020600007C0AA1FBB1FA617B70710F0A61BB70B08
:10207000881F991F5A95A9F780959095BC01CD01AD
:102080000895EE0FFF1F0590F491E02D099481E073
:1020900090E0F8940C94C510F999FECF92BD81BDE3
:1020A000F89A992780B50895262FF999FECF1FBA7F
:1020B00092BD81BD20BD0FB6F894FA9AF99A0FBE71
:1020C00001960895A1E21A2EAA1BBB1BFD010DC0AB
:1020D000AA1FBB1FEE1FFF1FA217B307E407F507D8
:1020E00020F0A21BB30BE40BF50B661F771F881FB4
:1020F000991F1A9469F760957095809590959B014A
:10210000AC01BD01CF010895052E97FB1EF400948C
:102110000E949B1057FD07D00E94621007FC03D05D
:102120004EF40C949B1050954095309521953F4F5F
:102130004F4F5F4F089590958095709561957F4FB3
:102140008F4F9F4F08950E94B610A59F900DB49F8A
:10215000900DA49F800D911D11240895B7FF0C943C
:10216000A3100E94A310821B930B0895A29FB0019D
:10217000B39FC001A39F700D811D1124911DB29FBB
:0E218000700D811D1124911D0895F894FFCF5C
:10218E00B700B7000100000000000000E700E90AF8
:10219E003B015301CE00E60000000000E700E90A13
:1021AE003B015301CE00E600000000006D0BE90A72
:1021BE00360B140B280BB40B000000001802E801BC
:1021CE00E001CC01BD01BC01000000004702E90A9C
:1021DE004702470247024702000000004702E90A91
:1021EE00206D6F7265206D696E7574657300206D5C
:1021FE006F7265206D696E75746521004F50454E86
:10220E002100564D4450565F317C315F564D44503F
:04221E00560D0A004F
:00000001FF
