:100000000C946A000C9492000C9492000C942C04B2
:100010000C942C040C942C040C9492000C94A511B8
:100020000C9492000C9492000C9492000C946B032C
:100030000C9492000C9492000C9492000C949200F8
:100040000C942F0D0C9492000C94220C0C94FC0B2D
:100050000C9492000C9492000C9492000C949200D8
:100060000C94BC040C9492000000000024002700B3
:100070002A0000000008000201000003040700003D
:100080000000000000000200000000250028002BF6
:1000900000000000002300260029000404040404DA
:1000A0000404040202020202020303030303030125
:1000B00002040810204080010204081020010204FC
:1000C0000810201F1C1F1E1F1E1F1F1E1F1E1F008B
:1000D0003215C21211241FBECFEFD8E0DEBFCDBF54
:1000E00012E0A0E0B1E0EAE5F4E302C005900D9271
:1000F000A633B107D9F725E0A6E3B2E001C01D920F
:10010000A330B207E1F710E0C9E6D0E004C02197C0
:10011000FE010E946417C836D107C9F70E94CC12AD
:100120000C94201A0C9400002091D2043091D30436
:100130002817390771F49091D0048091D104981751
:1001400041F0E091D004F0E0E050FD4F808190E07C
:1001500008958FEF9FEF089508951F93CF93DF9336
:10016000DC015C962D913C915D972115310539F4A8
:1001700081E090E013969C938E9312973DC0519628
:10018000ED91FC91529750969C915097892F8095B4
:100190001FB75E964C915E9741FB772770F941FD42
:1001A0006095F8944081772311F0492B01C04823D2
:1001B0004083E9012197F1F748E0508160FF02C0D8
:1001C000592B01C058235083E9012197F1F7669517
:1001D000415099F7772321F090818923808303C0D0
:1001E0008081982B90831FBF5C968D919C915D9729
:1001F0000197F1F721E030E0C901DF91CF911F9124
:1002000008952091D2043091D3042817390771F44E
:100210008091D1042091D00490E0805C9F4F821B9C
:10022000910960E470E00E943517089580E090E045
:1002300008952091D2043091D30428173907B9F4D6
:100240009091D0048091D104981789F0E091D00466
:10025000F0E0E050FD4F80812091D00430E02F5F2E
:100260003F4F2F7333272093D00490E008958FEFF2
:100270009FEF089585ED8093BC008091BC0084FDC4
:10028000FCCF1092DA0208954091B402262F30E09C
:10029000240F311D21323105DCF42091DA022430A3
:1002A000C9F4FC0180E090E0861758F43091B40264
:1002B0002191DC01AE56BD4FA30FB11D2C930196C9
:1002C000F3CF8091B402680F6093B40280E0089588
:1002D00081E0089582E008950895E091910280916F
:1002E0009002E81730F4F0E0E059FD4F808190E093
:1002F00008958FEF9FEF0895909191028091900261
:10030000981750F4E92FF0E0E059FD4F208130E0DC
:100310009F5F9093910202C02FEF3FEFC9010895B4
:100320008091900290E020919102821B91090895A2
:10033000CF92DF92EF92FF920F931F93CF93DF93B1
:100340007C01262F972F8A0180916F02882391F0DC
:10035000C62FD72F6E01C40ED51ECC15DD0571F04A
:100360006991D701ED91FC910190F081E02DC701D9
:100370000995F3CF642F822F0E944401C801DF91B9
:10038000CF911F910F91FF90EF90DF90CF90089544
:10039000CF93DF931F92CDB7DEB7698320916F02B1
:1003A0002223D1F020916E02203240F021E030E093
:1003B000FC013383228380E090E015C080916D02C0
:1003C000E82FF0E0E35BFD4F998190838F5F80938E
:1003D0006D0280936E0205C061E0CE0101960E941D
:1003E000440181E090E00F90DF91CF910895CF928A
:1003F000DF92EF92FF920F931F930E94230DC09004
:100400004403D0904503E0904603F09047038B01EE
:100410009C010C191D092E093F0980914E039091F2
:100420004F03A0915003B0915103083E13402105A2
:100430003105D0F00196A11DB11D80934E0390931C
:100440004F03A0935003B0935103B701A601485145
:100450005C4F6F4F7F4F409344035093450360932D
:10046000460370934703C9CF40914A0350914B0311
:1004700060914C0370914D0384179507A607B70749
:1004800088F1E0914203F0914303309759F10995C7
:10049000611571058105910519F00E94030F22C0B5
:1004A00080914E0390914F03A0915003B09151035E
:1004B000845D9E4FAF4FBF4F80934A0390934B0391
:1004C000A0934C03B0934D0381E090E0209148034A
:1004D00030914903232B11F480E090E0909349037D
:1004E0008093480360914E0370914F0380915003B5
:1004F000909151031F910F91FF90EF90DF90CF905B
:1005000008952F923F924F925F926F927F928F92B7
:100510009F92AF92BF92CF92DF92EF92FF921F9382
:10052000CF93DF9300D000D0CDB7DEB70E94F701A4
:1005300020E831E541E050E00E94861960E871E56D
:1005400081E090E00E9476194B015C0183E5282E42
:1005500083E0382E90E8C92E91E5D92EEE24E3945D
:10056000F12C1BE038E5231633E0330671F1F1017D
:1005700081911F01883048F4189FC0011124FC01AB
:10058000EC58FB4F20812F7059F58FEF9FEFDC0166
:100590002C013D01480C591C6A1C7B1C0E94F70170
:1005A0006415750586059705E8F60E94F701A30115
:1005B0009201261B370B480B590B2C153D054E0598
:1005C0005F0580F669017A01CDCF88E00E94540C66
:1005D000019709F46AC080915203811109C065C076
:1005E000FC01E659FB4F82819381A481B581D0CF74
:1005F000C701B6012CE330E040E050E00E948619CC
:10060000790129833A834B835C830E94FF0F298100
:100610003A814B815C81203A35404105510519F4FE
:100620006CE771E029C0E114F10421F14CE3E41618
:10063000F1047CF0C7016CE370E00E94351784ED93
:1006400094E00E948C126AE871E084ED94E00E94CC
:100650002E12C7016CE370E00E943517AC01990FB0
:10066000660B770B2AE084ED94E00E9443126FE85A
:1006700071E002C069E971E084ED94E00F900F90A1
:100680000F900F90DF91CF911F91FF90EF90DF902F
:10069000CF90BF90AF909F908F907F906F905F9022
:1006A0004F903F902F900C942E120F900F900F9020
:1006B0000F90DF91CF911F91FF90EF90DF90CF903F
:1006C000BF90AF909F908F907F906F905F904F9072
:1006D0003F902F9008951F920F920FB60F92112402
:1006E0002F933F934F935F936F937F938F939F933A
:1006F000AF93BF93EF93FF938091410387FF05C0B2
:1007000010928500109284001BC020914103022E9C
:10071000000C330B8091400390E02817390784F4D4
:1007200080914103082E000C990BFC01EE0FFF1F76
:100730008E0F9F1FFC01EA55FC4F808186FD15C07E
:10074000809141038F5F8093410320914103022EEA
:10075000000C330B8091400390E028173907C4F454
:10076000809141038C3064F113C080914103082EC5
:10077000000C990BFC01EE0FFF1F8E0F9F1FFC0159
:10078000EA55FC4F808160E08F730E947D0CD8CFCA
:100790008091840090918500049680349C4918F4DF
:1007A00080E49CE905C080918400909185000496C6
:1007B00090938900809388008FEF809341033BC022
:1007C000209184003091850080914103082E000C17
:1007D000990BFC01EE0FFF1F8E0F9F1FFC01EA55C6
:1007E000FC4F81819281820F931F909389008093A7
:1007F000880080914103082E000C990BFC01EE0F3C
:10080000FF1F8E0F9F1FFC01EA55FC4F808186FF62
:1008100012C080914103082E000C990BFC01EE0FD1
:10082000FF1F8E0F9F1FFC01EA55FC4F808161E086
:100830008F730E947D0CFF91EF91BF91AF919F91BB
:100840008F917F916F915F914F913F912F910F9079
:100850000FBE0F901F9018951F920F920FB60F9218
:1008600011242F933F934F935F936F937F938F93B5
:100870009F93AF93BF93EF93FF93E091D204F091D6
:10088000D304309709F451C0968DA685B785858528
:1008900091FF04C09C91892329F447C09C9189232E
:1008A00009F043C0A389B4899C91858980958923E7
:1008B0008C93868997890197F1F7608D718DA68554
:1008C000B785558538E020E0CB010197F1F7822FFD
:1008D00090E095958795282F4C91452309F0206845
:1008E000315091F7868D81FD20958091D10490E063
:1008F00001968F7399273091D004381749F0A09151
:10090000D104B0E0A050BD4F2C938093D10403C01C
:10091000868D8160868F828D938D0197F1F7A389F3
:10092000B4899C918589892B8C93FF91EF91BF911C
:10093000AF919F918F917F916F915F914F913F9177
:100940002F910F900FBE0F901F901895E091D20439
:10095000F091D304E817F90769F4A389B4899C914D
:100960008589809589238C931092D3041092D204A8
:1009700081E0089580E008951F920F920FB60F92C4
:1009800011242F933F934F935F936F937F938F9394
:100990009F93AF93BF93EF93FF938091B900887FAC
:1009A000803609F49CC068F5883209F45BC090F485
:1009B000803109F454C038F4882309F4F6C0883033
:1009C00009F44DC0F6C0883109F44CC0803209F4F6
:1009D0005DC0EFC0803409F468C048F4803309F486
:1009E00055C0883309F0E5C08093D902D8C080355E
:1009F00009F44FC0883509F45DC0883409F0D9C0C6
:100A0000D6C0883909F4C7C0A8F4883709F467C08C
:100A100038F4883609F463C0803709F460C0C9C06F
:100A2000883809F4B8C0803909F45FC0803809F00B
:100A3000C0C05BC0803B09F486C038F4803A09F43A
:100A400066C0883A09F47FC0B4C0803C09F4A7C0EE
:100A5000883C09F4A4C0883B09F48AC0AAC08091EC
:100A6000FF0210C09091FE028091FD02981770F570
:100A7000E091FE0281E08E0F8093FE02F0E0E352EF
:100A8000FD4F80818093BB0085EC86C08093D902A6
:100A90008EC0E091FE0281E08E0F8093FE02809175
:100AA000BB00F0E0E352FD4F80839091FE02809105
:100AB000FD026EC0E091FE0281E08E0F8093FE0287
:100AC0008091BB00F0E0E352FD4F80838091DC0217
:100AD00081116DC081E08093DB0284EA61C083E014
:100AE0008093DA021092D802CFCF8091D802803260
:100AF00008F051C0E091D80281E08E0F8093D802B7
:100B00008091BB00F0E0E854FD4F8083BDCF85ECC1
:100B10008093BC001092DA028091D802803230F4C7
:100B2000E091D802F0E0E854FD4F10826091D802C5
:100B300070E0E091B602F091B70288EB92E009957F
:100B40001092D80236C084E08093DA021092B50287
:100B50001092B402E091B202F091B3020995809133
:100B6000B402811105C081E08093B4021092920218
:100B7000E091B50281E08E0F8093B502F0E0EE5671
:100B8000FD4F80818093BB009091B5028091B402AB
:100B9000981708F479CF85E88093BC000AC085ECEB
:100BA0008093BC001092DA0204C01092D9020E9415
:100BB0003A01FF91EF91BF91AF919F918F917F91FA
:100BC0006F915F914F913F912F910F900FBE0F90BA
:100BD0001F901895CF93DF93EC010E94FF0F4C817B
:100BE0005D816881798184ED94E0DF91CF910C94EF
:100BF0002A0FCF92DF92EF92FF920F931F93CF9322
:100C0000DF93EC01109291021092900210926D020B
:100C100010926E021092DA0211E01093DC02109230
:100C2000DB0261E082E10E947D0C61E083E10E94D1
:100C30007D0C8091B9008E7F8093B9008091B900BE
:100C40008D7F8093B90088E48093B80085E4809319
:100C5000BC0061E081E10E94AD0C61E081E10E9495
:100C60007D0C61E080E10E94AD0C60E080E10E94BB
:100C70007D0C10936F0288E680934C0210926D02F7
:100C800010926E0260E084EC94E00E94C8018091B2
:100C90006E02813208F045C09091DA029111FCCFCA
:100CA00092E09093DA0291E09093DC029FEF9093B0
:100CB000D9021092FE028093FD02ADE4B2E02DED68
:100CC00032E0F9019E2F921B981718F49D91919391
:100CD000F9CF1092FF028091FF02806D8093FF0296
:100CE0008091DB02813061F41092DB028091FF027F
:100CF0008093BB008091BC0083FDF8CF85EC01C0E0
:100D000085EE8093BC008091DA028230E1F380911D
:100D1000D9028F3F31F08091D902803211F0809159
:100D2000D90210926D0210926E0210926F028091A1
:100D3000DA028111FCCF81E08093DA028093DC0239
:100D40009FEF9093D9021092FE0296E09093FD02DD
:100D50008093FF028091FF02806D8093FF0280915B
:100D6000DB02813061F41092DB028091FF028093FC
:100D7000BB008091BC0083FDF8CF85EC01C085EEFF
:100D80008093BC008091DA028130E1F38091FE0211
:100D9000873018F48091FE0201C087E0ADEDB2E02B
:100DA00020E732E0F9019E2F921B981718F49D91CD
:100DB0009193F9CF109291028093900284EC94E089
:100DC0000E947C018F77982F92959F701AEF082FC1
:100DD000919F000D112484EC94E00E947C019C0101
:100DE000332794E0359527959A95E1F7F82E129FD1
:100DF000F00C112484EC94E00E947C019C013327C8
:100E000044E0359527954A95E1F7E82E129FE00CCE
:100E1000112484EC94E00E947C0184EC94E00E9414
:100E20007C019C01332754E0359527955A95E1F7CD
:100E3000D82E129FD00C112484EC94E00E947C01E7
:100E40009C01332764E0359527956A95E1F7C82E14
:100E5000129FC00C112484EC94E00E947C019C0140
:100E6000332774E0359527957A95E1F7129F800D29
:100E700011248883C982DA82EB82FC820D8360E0D0
:100E800081E10E947D0CCE01DF91CF911F910F91E6
:100E9000FF90EF90DF90CF900895CF93C82F80916F
:100EA000440281111EC0209140032C30A0F481E047
:100EB000820F809340032093CA0330E0F901EE0FC4
:100EC000FF1F2E0F3F1FF901EA55FC4F88EB9BE0F7
:100ED0009283818303C08FEF8093CA0381E0809364
:100EE0004402109252038091CA038C3008F051C022
:100EF00061E087E00E94AD0C8091CA03E82FF0E02A
:100F00009F01220F331FE20FF31FEA55FC4F908120
:100F1000907C976090831092CB031092CC036CE08E
:100F20000E9429179CE0899FB001112440E050E005
:100F30009A01260F371FF901EE0FFF1F2E0F3F1FDB
:100F4000F901EA55FC4F908196FD16C04F5F5F4F47
:100F50004C30510569F781110FC01092800082E07A
:100F6000809381001092850010928400B19A809144
:100F70006F00826080936F00E091CA03F0E0CF01C0
:100F8000880F991FE80FF91FEA55FC4F8081806494
:100F90008083CC2329F080E090E00E94D01013C021
:100FA00088E00E94540C892B41F484E690E00E9472
:100FB000D01081E08093520306C080E090E00E9450
:100FC000D010109252036CE271E080E090E00E9439
:100FD0003A10E091CA03F0E0CF01880F991FE80FA3
:100FE000F91FEA55FC4F80818F7B8083CF91089554
:100FF000CF93DF9300D000D000D0CDB7DEB788E02C
:101000000E94540C892BC1F480E00E944D0768EACD
:1010100071E0CE0101960E945911CE0101960E9405
:10102000EA05CE0101960E9454116CE370E080E065
:1010300090E00E943A100EC067EB71E0CE0101967D
:101040000E945911CE0101960E94EA05CE01019637
:101050000E94541126960FB6F894DEBF0FBECDBF86
:10106000DF91CF9108952F923F924F925F926F92AE
:101070007F928F929F92AF92BF92CF92DF92EF9228
:10108000FF920F931F93CF93DF93CDB7DEB7609797
:101090000FB6F894DEBF0FBECDBF81E00E944D07B2
:1010A00068ED71E0CE0101960E945911CE010196C2
:1010B0000E94EA05CE0101960E9454118BE191E055
:1010C00098878F83ABE0B1E0B88BAF87EF81F8856D
:1010D00061917191F887EF8388EE93E00E94351754
:1010E0001B01AF85B889ED91FD91B88BAF87FE8765
:1010F000ED8780910001893021F4E6E8F0E0149159
:1011000078C08F3F09F0CDC189E080930001E6E807
:10111000F0E014911F3F09F4C4C1113011F11230F5
:1011200009F443C0111165C014BC15BC84B58260BC
:1011300084BD85B5816085BDE4EAF0E08491E82F47
:10114000F0E0EE0FFF1FE957FF4F859194919093C8
:101150003B0280933A02E8EBF0E0849180933902FD
:101160004AC01092800010928100809181008860B6
:101170008093810080918100816080938100E4EA06
:10118000F0E08491E82FF0E0EE0FFF1FE957FF4FEA
:10119000859194919093380280933702E8EBF0E0C8
:1011A00084918093360211E026C01092B000109214
:1011B000B1008091B00082608093B0008091B10056
:1011C00081608093B100E4EAF0E08491E82FF0E0E0
:1011D000EE0FFF1FE957FF4F859194919093A00365
:1011E00080939F03E8EBF0E084918093A10312E0E9
:1011F00002C017FD56C1C101032C000CAA0BBB0B8A
:1012000089879A87AB87BC8761E089E00E94AD0C33
:10121000AD85BE854D01A12CB12C812F8D7F09F0AC
:10122000B6C060E072E18AE790E0A50194010E94F7
:10123000A81929013A0169017A01B1E0CB1AD10854
:10124000E108F108EFEFCE16D104E104F10409F052
:1012500008F44BC060E472E48FE090E0A5019401D3
:101260000E94A81969017A01F1E0CF1AD108E108BA
:10127000F108123001F52FEFC216D104E104F10498
:1012800009F008F49BC160E970ED83E090E0A501EE
:1012900094010E94A81969017A0181E0C81AD10855
:1012A000E108F1089FEFC916D104E104F10409F047
:1012B000C0F583E065C0AFEFCA16D104E104F104C4
:1012C000B1F0A8F068E478EE81E090E0A501940127
:1012D0000E94A81969017A01B1E0CB1AD108E1088E
:1012E000F108112309F448C13EC181E001C082E048
:1012F000112391F045C0D301C2012AE0B595A7950D
:10130000979587952A95D1F76C017D0121E0C21A46
:10131000D108E108F10885E095B5987F892B85BD56
:1013200071C068E478EE81E090E0A50194010E942C
:10133000A81969017A01F1E0CF1AD108E108F10892
:101340002FEFC216D104E104F10409F008F4DCC067
:1013500064E274EF80E090E0A50194010E94A81976
:1013600069017A01E1E0CE1AD108E108F108FFEF46
:10137000CF16D104E104F10411F008F0C7C085E0F4
:101380009091B100987F892B8093B1003BC060E0C1
:1013900072E18AE790E0A50194010E94A819690111
:1013A0007A0181E0C81AD108E108F108C114D1041A
:1013B00091E0E906F10488F068E478EE81E090E0DD
:1013C000A50194010E94A81969017A01A1E0CA1A35
:1013D000D108E108F10893E001C091E0113091F4E7
:1013E00080918100887F892B8093810089859A85EF
:1013F000AB85BC85892B8A2B8B2B61F42FEF3FEFBC
:10140000A9012EC089859A85AB85BC85892B8A2B3D
:101410008B2B71F02D853E85220F331FD1010E9449
:10142000491728EE33E040E050E00E94861903C0DF
:101430002FEF3FEFA901113099F0123019F111117E
:1014400030C0C7BC20934002309341024093420217
:101450005093430280916E00826080936E0021C0A1
:10146000D0928900C092880020933C0230933D02C4
:1014700040933E0250933F0280916F0082608093C0
:101480006F000FC0C092B3002093A2033093A30358
:101490004093A4035093A5038091700082608093D1
:1014A0007000B101625E7F4F072E000C880B990B14
:1014B0000E943A10AF81B885AB52B14009F006CE18
:1014C00001E010E021E048EF57E060EB74E080E0DD
:1014D00090E00E94550F60960FB6F894DEBF0FBEE5
:1014E000CDBFDF91CF911F910F91FF90EF90DF90D3
:1014F000CF90BF90AF909F908F907F906F905F90B4
:101500004F903F902F90089584E03ACF62E17AE7C0
:1015100080E090E0A50194010E94A81969017A0178
:1015200081E0C81AD108E108F1089FEFC916D1047B
:10153000E104F104B1F0A8F0D301C2015AE0B5957D
:10154000A795979587955A95D1F76C017D0121E074
:10155000C21AD108E108F108112309F4DCCE87E0B2
:101560000FCF86E0C5CEAFEFCA16D104E104F10477
:1015700009F060F684E0BCCEFFEFCF16D104E104A1
:10158000F104D1F0C8F062E17AE780E090E0A501D3
:1015900094010E94A81969017A01B1E0CB1AD1081F
:1015A000E108F108EFEFCE16D104E104F10411F0E7
:1015B00008F0A1CE84E0B0CE83E0AECE82E0E0CEF3
:1015C000FC01918D828D981761F0828DDF01A80F4B
:1015D000B11D5D968C91928D9F5F9F73928F90E06D
:1015E00008958FEF9FEF0895FC01918D828D9817DC
:1015F00031F0828DE80FF11D858D90E008958FEF19
:101600009FEF0895FC01918D228D892F90E0805CE1
:101610009F4F821B91098F73992708958DEC93E05A
:101620000E94020B21E0892B09F420E0822F08950B
:10163000FC01848DDF01A80FB11DA35ABF4F2C916F
:10164000848D90E001968F739927848FA689B7893E
:101650002C93A089B1898C9180648C93938D848D17
:10166000981306C00288F389E02D80818F7D8083E6
:101670000895EF92FF920F931F93CF93DF93EC01A6
:1016800081E0888F9B8D8C8D981305C0E889F9893E
:10169000808185FD24C0F62E0B8D10E00F5F1F4F5B
:1016A0000F731127E02E8C8DE8120CC00FB607FCCB
:1016B000FACFE889F989808185FFF5CFCE010E94B4
:1016C000180BF1CF8B8DFE01E80FF11DE35AFF4F90
:1016D000F0820B8FEA89FB898081806207C0EE89E6
:1016E000FF896083E889F98980818064808381E053
:1016F00090E0DF91CF911F910F91FF90EF900895AF
:10170000CF93DF93EC01888D8823C9F0EA89FB89A8
:10171000808185FD05C0A889B9898C9186FD0FC09F
:101720000FB607FCF5CF808185FFF2CFA889B98974
:101730008C9185FFEDCFCE010E94180BE7CFDF9192
:10174000CF91089580E090E0892B29F00E940E0B44
:1017500081110C9400000895833081F028F48130C9
:1017600099F08230A1F008958730A9F08830B9F05F
:101770008430D1F4809180008F7D03C080918000FF
:101780008F7780938000089584B58F7702C084B5E9
:101790008F7D84BD08958091B0008F7703C08091C4
:1017A000B0008F7D8093B00008953FB7F89480918A
:1017B0005D0390915E03A0915F03B091600326B535
:1017C000A89B05C02F3F19F00196A11DB11D3FBF79
:1017D000BA2FA92F982F8827820F911DA11DB11D07
:1017E000BC01CD0142E0660F771F881F991F4A9503
:1017F000D1F708950E9461191F920F920FB60F92B0
:1018000011242F933F934F935F936F937F938F9305
:101810009F93AF93BF93EF93FF938DEC93E00E9460
:10182000180BFF91EF91BF91AF919F918F917F9195
:101830006F915F914F913F912F910F900FBE0F903D
:101840001F9018951F920F920FB60F9211242F938D
:101850008F939F93EF93FF93E091DD03F091DE036D
:101860008081E091E303F091E40382FD12C0908156
:101870008091E6038F5F8F732091E703821751F009
:10188000E091E603F0E0E353FC4F958F8093E6038D
:1018900001C08081FF91EF919F918F912F910F90C7
:1018A0000FBE0F901F901895CF93DF93282F30E035
:1018B000F901EE58FF4F8491F901E155FF4FD491A2
:1018C000F901E556FF4FC491CC2391F081110E949C
:1018D000AC0BEC2FF0E0EE0FFF1FEF56FF4FA59182
:1018E000B491EC91ED2381E090E021F480E002C01E
:1018F00080E090E0DF91CF9108951F93CF93DF9325
:10190000282F30E0F901EE58FF4F8491F901E1559D
:10191000FF4FD491F901E556FF4FC491CC23C9F094
:10192000162F81110E94AC0BEC2FF0E0EE0FFF1F81
:10193000E957FF4FA591B4918FB7F894111105C0E5
:101940009C91ED2FE095E92302C0EC91ED2BEC93F7
:101950008FBFDF91CF911F910895CF93DF9390E0D8
:10196000FC01E155FF4F2491FC01E556FF4F8491A6
:10197000882361F190E0880F991FFC01E859FF4F1F
:10198000C591D491FC01E957FF4FA591B491611124
:1019900009C09FB7F8948881209582238883EC91B1
:1019A0002E230BC0623061F49FB7F8943881822FE8
:1019B000809583238883EC912E2B2C939FBF06C0A8
:1019C0008FB7F894E8812E2B28838FBFDF91CF91BA
:1019D00008958F929F92AF92BF92CF92DF92EF9233
:1019E000FF926B017C010E94D50B4B015C01C1147D
:1019F000D104E104F104F1F00E94D50BDC01CB012C
:101A000088199909AA09BB09883E9340A105B10527
:101A100070F321E0C21AD108E108F10888EE880EBF
:101A200083E0981EA11CB11CC114D104E104F1048F
:101A300019F7DDCFFF90EF90DF90CF90BF90AF9080
:101A40009F908F9008952FB7F894609159037091EB
:101A50005A0380915B0390915C032FBF08951F92FE
:101A60000F920FB60F9211242F933F938F939F9352
:101A7000AF93BF938091590390915A03A0915B0358
:101A8000B0915C033091580323E0230F2D3720F4ED
:101A90000196A11DB11D05C026E8230F0296A11DC8
:101AA000B11D209358038093590390935A03A09338
:101AB0005B03B0935C0380915D0390915E03A09102
:101AC0005F03B09160030196A11DB11D80935D037A
:101AD00090935E03A0935F03B0936003BF91AF91B7
:101AE0009F918F913F912F910F900FBE0F901F905C
:101AF00018952F923F924F925F926F927F928F92A2
:101B00009F92AF92BF92CF92DF92EF92FF92CF93CC
:101B1000DF93CDB7DEB728970FB6F894DEBF0FBEC0
:101B2000CDBF1C010E94F7016B017C01D1011A9607
:101B30008C911A97982F9F702EE0290F2F702330C9
:101B400008F039C116964D915D916D917C91199770
:101B5000C416D506E606F70608F42DC1923061F4E6
:101B600012968D919D910D90BC91A02DF1018683CF
:101B70009783A087B1871FC1933009F050C0D1016E
:101B800012968D909D90AD90BC9015970E94F70194
:101B900020E8422E21E5522E66246394712CA30185
:101BA00092010E94861960E871E581E090E00E9450
:101BB0007619DC01CB01880D991DAA1DBB1DF10111
:101BC00082809380A480B580C816D906EA06FB06F9
:101BD000A8F0C701B601A30192010E9486192F5FE8
:101BE0003F4F4F4F5F4F60E871E581E090E00E940A
:101BF0007619860E971EA81EB91EA5C0C701B6018C
:101C0000A30192010E94861960E871E581E090E0ED
:101C10000E947619860E971EA81EB91EC2C0943067
:101C200009F0C5C0D10112964D905D906D907C90E9
:101C300015970E94F70169837A838B839C830E94A6
:101C4000F7014B015C010E94F7016D837E838F8356
:101C5000988729813A814B815C81240D351D461D71
:101C6000571D29833A834B835C8380E8482E81E5A6
:101C7000582E66246394712CC501B401A30192010E
:101C80000E94861989809A80AB80BC80861A970A48
:101C9000A80AB90A6D817E818F819885A30192017E
:101CA0000E948619CA01B9016C5F7F4F8F4F9F4F09
:101CB00027E030E040E050E00E9486199B01AC0133
:101CC00060E871E581E090E00E947619A501940139
:101CD000261B370B480B590BF10182809380A4809F
:101CE000B580C216D306E406F506A8F1F0E88F0E1B
:101CF000FAE39F1EF9E0AF1EB11C8C0C9D1CAE1CBC
:101D0000BF1CC701B601A30192010E948619861A61
:101D1000970AA80AB90ACA01B9016C5F7F4F8F4FB1
:101D20009F4F27E030E040E050E00E9486199B0181
:101D3000AC0160E871E581E090E00E947619861AB6
:101D4000970AA80AB90AD10116968D929D92AD9272
:101D5000BC92199730C08C0C9D1CAE1CBF1CC701D7
:101D6000B601A30192010E948619861A970AA80A51
:101D7000B90ACA01B9016C5F7F4F8F4F9F4F27E0AF
:101D800030E040E050E00E9486199B01AC0160E821
:101D900071E581E090E00E947619861A970AA80AF8
:101DA000B90AF10186829782A086B18604C08F7E2F
:101DB000D1011A968C93F10182858F70813061F484
:101DC00082819381A481B581C80ED91EEA1EFB1EB3
:101DD000C682D782E086F18628960FB6F894DEBFD9
:101DE0000FBECDBFDF91CF91FF90EF90DF90CF90EE
:101DF000BF90AF909F908F907F906F905F904F902B
:101E00003F902F90089560934E0370934F038093FB
:101E1000500390935103DC01CB01845D9E4FAF4F83
:101E2000BF4F80934A0390934B03A0934C03B0930E
:101E30004D0382E090E090934903809348030E9411
:101E4000230D60934403709345038093460390935E
:101E500047030895CF92DF92EF92FF920F931F9363
:101E6000CF93DF936C017A018B01C0E0D0E0CE15F7
:101E7000DF0589F0D8016D918D01D601ED91FC91BE
:101E80000190F081E02DC6010995892B11F47E01A6
:101E900002C02196ECCFC701DF91CF911F910F9126
:101EA000FF90EF90DF90CF9008958F929F92BF9216
:101EB000CF92DF92EF92FF920F931F93CF93DF9316
:101EC0001F92CDB7DEB76B017C014A01C8010297B2
:101ED000039728F0C8010197029788F40AC0298364
:101EE0000E94F70129816115724E8F4D914090F744
:101EF00055C0C114D104E104F10409F44FC0E0E07D
:101F0000F0E09BE0BE2E9E9FB0019F9F700D1124BC
:101F1000AB014C585B4FDA018C918F70D1F566594B
:101F20007B4FDB018D929C92DA018C9120FB85F92D
:101F30000F70807F082B0C93DB011296CD92DD92FF
:101F4000ED92FC9215970F7011F1015F0F70023046
:101F500020F4CD28CE28CF2819F18BE08E9F900158
:101F60008F9F300D1124C90186599B4FDC014D9183
:101F70005C911197452BA1F0F901EC58FB4F2081A2
:101F8000206120831A962C9124FD0E94790D8B2DBF
:101F900014C03196E830F10509F0B4CF8FEF0DC0D1
:101FA0002BE02E9FC0012F9F900D1124FC01EC58B7
:101FB000FB4F80818F7E8083EACF0F90DF91CF919E
:101FC0001F910F91FF90EF90DF90CF90BF909F9067
:101FD0008F9008950F931F93613821E5720721E0D8
:101FE0008207910540F403E010E020E043E358E06D
:101FF0000E94550F01C08FEF1F910F9108956EEF52
:1020000084ED94E00E94AD0061E084ED94E00E94D4
:10201000AD0065E070E080E090E00C94E90CEDEC40
:10202000F3E0A089B18982E08C93A089B1891C92E8
:10203000A485B5851C92A685B78580E18C93108E0A
:10204000A489B58986E08C93A289B3898C9180613B
:102050008C93A289B3898C9188608C93A289B3896F
:102060008C9180688C930288F389E02D80818F7D2C
:10207000808308954F925F926F927F928F929F928A
:10208000AF92BF92CF92DF92EF92FF920F931F9386
:10209000CF93DF934B015C010E94230D6B017C0108
:1020A00001E01BE00E94230DDC01CB018C199D098E
:1020B000AE09BF0988169906AA06BB0608F45FC0D8
:1020C0008091C2048111EECF0093C2041092C30428
:1020D000E091C304E83088F51E9FF0011124EC580C
:1020E000FB4F808184FF23C00E94F7012091C3042D
:1020F000129FF0011124DF01A659BB4F16964D9097
:102100005D906D907C90199764157505860597050F
:1021100070F0CD91DC911197EC58FB4F808185FFD9
:1021200013C0283068F0209711F0FE0109958091C6
:10213000C3048F5F8093C304CBCF1092C204B2CF8D
:10214000982F9F7081F309C01A968C911A9784FF7B
:10215000EACFCD010E94790DE6CF807E8083119673
:102160001C921E9212961D921D921D921C92159702
:1021700016961D921D921D921C921997D4CFDF9135
:10218000CF911F910F91FF90EF90DF90CF90BF9074
:10219000AF909F908F907F906F905F904F90089539
:1021A000CF92DF92EF92FF92DC01A03282E0B8077B
:1021B0000CF03EC0B7FD06C0A53BB1052CF0A4EB6A
:1021C000B0E002C0A0E0B0E08091CB0328E830E0AE
:1021D0006901C81AD10887FDD394CC0CDD1CCC0C46
:1021E000DD1C0D2C000CEE08FF088091CC0328E5C7
:1021F00032E0281B310987FD3395220F331F220F50
:10220000331FA901330F660B770B9A01AB012C1911
:102210003D094E095F090E94D21924EB30E040E0ED
:1022200050E00E94A819C20ED31EE41EF51ED6016E
:102230009091CA039C3098F58091CB0348E850E018
:10224000481B510987FD5395440F551F440F551FD7
:10225000A417B5078CF08091CC0328E532E0281B49
:10226000310987FD3395220F331F220F331FAD0134
:102270002A173B070CF4A90142505109440F551F7E
:102280002FB7F894892F90E0FC01EE0FFF1F8E0FFF
:102290009F1FFC01EA55FC4F528341832FBFFF90E3
:1022A000EF90DF90CF900895FC01808191810C9494
:1022B000FF17EF92FF920F931F93CF93DF93EC01E1
:1022C000198218821B821A821D821C826115710577
:1022D000A9F17B01FB0101900020E9F731978F0103
:1022E000061B170BB8016F5F7F4F80E090E00E94E4
:1022F0009718009759F0998388831B830A832C8150
:102300003D81232B81F4FC0110820DC088819981CD
:10231000009711F00E94FF17198218821D821C82FB
:102320001B821A820BC01D830C83B701DF91CF91F2
:102330001F910F91FF90EF900C946F19DF91CF9147
:102340001F910F91FF90EF9008951F920F920FB67B
:102350000F9211242F933F934F935F936F937F932B
:102360008F939F93AF93BF93EF93FF938091A203BB
:102370009091A303A091A403B091A503892B8A2B6C
:102380008B2B59F18091A103E0919F03F091A00361
:102390009081892780838091A2039091A303A091CB
:1023A000A403B091A503181619061A061B060CF013
:1023B0003DC08091A2039091A303A091A403B0918A
:1023C000A5030197A109B1098093A2039093A303E8
:1023D000A093A403B093A50329C080910001E6E86F
:1023E000F0E0E4919FEF90930001E130B9F098F0B4
:1023F000E230C9F4909170009D7F9093700091E05D
:102400009093B0009091B100987F94609093B10048
:102410001092B30008C010926E0005C090916F003A
:102420009D7F90936F0060E00E947D0CFF91EF9183
:10243000BF91AF919F918F917F916F915F914F91DC
:102440003F912F910F900FBE0F901F901895DC01B8
:10245000ED91FC910190F081E02D099461157105D9
:1024600079F0FB0101900020E9F73197AF01461B9D
:10247000570BDC01ED91FC910280F381E02D099472
:1024800080E090E008954F925F926F927F92EF927A
:10249000FF920F931F93CF93DF93CDB7DEB7A19732
:1024A0000FB6F894DEBF0FBECDBF7C01FA01CB01A1
:1024B00019A2223008F42AE08E010F5D1F4F422E30
:1024C000512C612C712CBF01A30192010E9486192D
:1024D000F901CA01015011096A3014F4605D01C0AC
:1024E000695CD8016C93232B242B252B61F7B80151
:1024F000C7010E942E12A1960FB6F894DEBF0FBE40
:10250000CDBFDF91CF911F910F91FF90EF907F9002
:102510006F905F904F900895CF92DF92EF92FF926D
:102520000F931F93CF93DF936B01770FEE08FF0894
:10253000F7FE1BC0EC016DE20E9427128C014427BC
:102540005527BA014C195D096E097F092AE0CE01B1
:102550000E944312800F911FDF91CF911F910F9125
:10256000FF90EF90DF90CF9008952AE0B701A60189
:10257000DF91CF911F910F91FF90EF90DF90CF905F
:102580000C94431280E691E09093D5048093D40498
:1025900084ED94E00C94A604CF93DF93CDB7DEB71F
:1025A0002C970FB6F894DEBF0FBECDBF789484B5DC
:1025B000826084BD84B5816084BD85B5826085BD3F
:1025C00085B5816085BD80916E00816080936E00CD
:1025D00010928100809181008260809381008091BF
:1025E0008100816080938100809180008160809370
:1025F00080008091B10084608093B1008091B00030
:1026000081608093B00080917A00846080937A002A
:1026100080917A00826080937A0080917A00816054
:1026200080937A0080917A00806880937A0010927B
:10263000C10010929B0310929C0310929D03109274
:102640009E031092690310926A0310926B0310921A
:102650006C0360ED77E080E090E00E94E90C8DEC87
:1026600093E090939A03809399030E940F100E9425
:10267000230D0091690310916A0320916B0330913F
:102680006C03DC01CB01801B910BA20BB30BC29737
:10269000A105B10538F463E070E080E090E00E94AD
:1026A000E90CE5CF0E94230D6093690370936A03E0
:1026B00080936B0390936C0367EE71E080919903B4
:1026C00090919A030E942E126AE070E080E090E000
:1026D0000E94E90C81E080936D030E940F100E941C
:1026E000FF0F6CE784ED94E00E94AD0069E884ED93
:1026F00094E00E94AD0065E070E080E090E00E9410
:10270000E90CCE0107960E94F905098528843C84CE
:102710008B849A842F8130E079018EE1E80EF11CE0
:10272000E09267030093660320926503909263032F
:102730008092620330926103AE2DB0E020E833E373
:1027400041EE51E00E94C7192B013C01E2EBF7E09A
:102750009701332784E6E82EF12C90E9C92EDD2479
:10276000D394CF01825B974082179307D4F4CF01B3
:1027700083709927892B99F4CF01B7010E943517EF
:10278000892B31F4CF01B6010E943517892B39F41A
:1027900080E8480E81E5581E81E0681E711C319664
:1027A000E0CF2E54384FC90164E670E00E9435171F
:1027B0007C01C90160E971E00E9435176C01E1E01C
:1027C000F0E010E0590183E0A822BB24E017F107F4
:1027D0002CF5E230F10589F4A114B10471F4E1148F
:1027E000F10419F4C114D10441F480E8480E8BE3DC
:1027F000581E86E2681E711C0FC0DF01A25DBE4F2D
:10280000AC91B0E020E831E541E050E00E94C7190A
:10281000460E571E681E791E3196D8CF292D30E0FE
:10282000A0E1BEE00E94111A6B017C01282D30E06E
:10283000ACE3B0E00E94111ADC01CB018C0D9D1DB0
:10284000AE1DBF1D6C017D01C30CD11CE11CF11C30
:10285000A22DB0E0119720E831E541E050E00E9460
:10286000D219DC01CB018C0D9D1DAE1DBF1DBC011D
:10287000CD01640D751D861D971D0E94030FCE01AD
:1028800001960E94F905498150E04053584F052EAA
:10289000000C660B770B2AE08DEC93E00E9443124C
:1028A0006FE28DEC93E00E9427124A8150E060E0D5
:1028B00070E02AE08DEC93E00E9443126FE28DEC11
:1028C00093E00E9427124B8150E060E070E02AE024
:1028D0008DEC93E00E94431260E28DEC93E00E9445
:1028E00027124C8150E060E070E02AE08DEC93E02C
:1028F0000E9443126AE38DEC93E00E9427124D81FF
:1029000050E060E070E02AE08DEC93E00E9443121A
:102910006AE38DEC93E00E9427124E8150E060E064
:1029200070E02AE08DEC93E00E94431266EF71E0C4
:102930008DEC93E00E942E1260E070E08DEC93E04D
:102940000E948C1266EF71E08DEC93E00E942E12D3
:1029500060EA7CE880E090E00E94EA0F80935303F5
:1029600060EC78EA80E090E00E94EA0F80935403E4
:1029700060EF72ED80E090E00E94EA0F80935503D3
:1029800060E17FEE80E090E00E94EA0F80935603C2
:1029900060E37BE081E090E00E94EA0F80935703C0
:1029A00060E577E281E090E00E94EA0F80935803AF
:1029B0000E94810201E010E020E041E852E06CE377
:1029C00070E080E090E00E94550F62E082E00E949B
:1029D000AD0C62E088E00E94AD0C80E00E944D07E3
:1029E00080915203882319F069EF71E002C065E01D
:1029F00072E0CE0101960E945911CE0101960E940B
:102A0000EA05CE0101960E94541182E00E94540C06
:102A1000892BF9F488E00E94540C892B61F480E042
:102A20000E944D076CE271E080E090E00E943A1055
:102A300063E172E002C060E272E0CE0101960E94A2
:102A40005911CE0101960E94EA05CE0101960E941D
:102A5000541164E670E080E090E00E943A100E9419
:102A6000A20BD3CF0F931F93CF93DF931092D0037A
:102A70001092CF0388EE93E0A0E0B0E08093D10302
:102A80009093D203A093D303B093D40380E491E056
:102A90009093CE038093CD0385EC90E09093DA037E
:102AA0008093D90384EC90E09093DC038093DB0364
:102AB00080EC90E09093DE038093DD0381EC90E066
:102AC0009093E0038093DF0382EC90E09093E20325
:102AD0008093E10386EC90E09093E4038093E3031A
:102AE0001092E6031092E7031092E8031092E903B4
:102AF000AAE6B4E0FD018285807C82871682178277
:102B0000108611861282138214821582118210821D
:102B10003B9624E0E23CF20771F71092C20420E0F9
:102B200030E09BE0929FF001939FF00D1124EC5850
:102B3000FB4F8081482F4F7009F079C12F5F3F4FC5
:102B40001B962830310571F71092C7041092C60405
:102B500088EE93E0A0E0B0E08093C8049093C904AD
:102B6000A093CA04B093CB0480E591E09093C50490
:102B70008093C40480E18093FE048CE18093FD0483
:102B800086E08093FC0420E081E697E9E3E9FEEF2C
:102B900031E0422F437009F030E061E0620F432FD3
:102BA00050E0DA01A359BE4F8A179B0738F09F0106
:102BB000241B350B820F931F262FEACF2093F90495
:102BC00021E0E22FF0E0EE53FF4FE491332319F0C0
:102BD000223009F4EF5FF0E041E0420F8E179F07CB
:102BE00020F08E1B9F0B242FECCF2093FA048F5FD5
:102BF0008093FB041092D7041092D60488EE93E0E1
:102C0000A0E0B0E08093D8049093D904A093DA04B4
:102C1000B093DB0480E691E09093D5048093D404D4
:102C20001092EB041092EA041092ED041092EC045E
:102C30001092EF041092EE041092F1041092F0043E
:102C40006091F2046E7F6D7F6093F204669561700F
:102C500081E0682783E00E947D0C61E083E00E94B0
:102C6000AD0C02EB10E0F80184918093E404CEE90E
:102C7000D0E0FE01849190E0880F991F89579F4F03
:102C8000FC01259134913093E6042093E50460E043
:102C900083E00E94AD0C8091F20481FD04C061E0EC
:102CA00083E00E947D0C83E08093E004F8010491AE
:102CB0000093E104FE01C491EC2FF0E0EE0FFF1F42
:102CC000EF56FF4F859194919093E3048093E20433
:102CD00080E791E09093D5048093D40461E083E091
:102CE0000E94AD0C1092EF041092EE041092ED04CD
:102CF0001092EC041092EB041092EA048DE991E03A
:102D00009093F1048093F0049091E004963108F0E0
:102D100057C02DEB30E03093EB042093EA042BE90D
:102D200031E03093ED042093EC042CE231E0309359
:102D3000EF042093EE0420916800983050F031E0C9
:102D40009E3008F430E081E001C0880F3A95EAF740
:102D500001C084E0822B80936800983038F09E3068
:102D600040F0963148F020E030E008C02DE630E039
:102D700005C02BE630E002C02CE630E03093E804DA
:102D80002093E704983030F481E001C0880F9A95D1
:102D9000EAF70EC0292F30E09E3018F42850310990
:102DA00002C02E50310981E001C0880F2A95EAF750
:102DB0008093E9048091F0049091F1040197F1F778
:102DC0008091EE049091EF04892B21F18091D2043F
:102DD0009091D304F4E0843D9F07E1F0009711F057
:102DE0000E94A6048091F2048E7F8093F2041092D8
:102DF000D1041092D00484ED94E09093D304809396
:102E0000D204E091E704F091E80490818091E90414
:102E1000892B808382E08093F60480E18093F7041D
:102E20001092F804DF91CF911F910F910895807E49
:102E3000808311961C921E9212961D921D921D92D5
:102E40001C92159716961D921D921D921C92199711
:102E500075CE991B79E004C0991F961708F0961B50
:102E6000881F7A95C9F78095089597FB072E16F469
:102E7000009407D077FD09D00E94501707FC05D0B9
:102E80003EF4909581959F4F0895709561957F4F81
:102E900008950E94111AB7FF0895821B930B08959D
:102EA000AA1BBB1B51E107C0AA1FBB1FA617B70770
:102EB00010F0A61BB70B881F991F5A95A9F780958C
:102EC0009095BC01CD010895EE0FFF1F0590F49180
:102ED000E02D0994CF93DF938230910510F482E0C6
:102EE00090E0E0910105F091020520E030E0C0E0C3
:102EF000D0E0309711F14081518148175907C0F057
:102F00004817590761F482819381209719F09B83B8
:102F10008A832BC0909302058093010526C021155A
:102F2000310519F04217530718F49A01BE01DF0169
:102F3000EF010280F381E02DDCCF2115310509F18D
:102F4000281B390B2430310590F412968D919C91F9
:102F500013976115710521F0FB019383828304C0EF
:102F60009093020580930105FD01329644C0FD0156
:102F7000E20FF31F81939193225031092D933C93DB
:102F80003AC02091FF0430910005232B41F4209199
:102F9000030130910401309300052093FF04209138
:102FA0000101309102012115310541F42DB73EB7E1
:102FB0004091050150910601241B350BE091FF045F
:102FC000F0910005E217F307A0F42E1B3F0B281722
:102FD000390778F0AC014E5F5F4F2417350748F092
:102FE0004E0F5F1F509300054093FF048193919310
:102FF00002C0E0E0F0E0CF01DF91CF9108950F93A0
:103000001F93CF93DF93009709F48CC0FC01329794
:10301000138212820091010510910205011511051C
:1030200081F420813181820F931F2091FF04309120
:1030300000052817390779F5F0930005E093FF04A0
:1030400071C0D80140E050E0AE17BF0750F41296AF
:103050002D913C911397AD012115310509F1D9014D
:10306000F3CF9D01DA013383228360817181860F62
:10307000971F8217930769F4EC0128813981260F85
:10308000371F2E5F3F4F318320838A819B8193833B
:103090008283452B29F4F0930205E093010542C099
:1030A0001396FC93EE931297ED01499159919E016D
:1030B000240F351FE217F30771F480819181840F8B
:1030C000951F029611969C938E93828193811396FD
:1030D0009C938E931297E0E0F0E0D80112968D91C8
:1030E0009C911397009719F0F8018C01F6CF8D9100
:1030F0009C9198012E5F3F4F820F931F2091FF04F8
:10310000309100052817390769F4309729F4109297
:1031100002051092010502C013821282109300056D
:103120000093FF04DF91CF911F910F910895A0E0CC
:10313000B0E0EDE9F8E10C94DE19EC01009721F420
:10314000CB010E946A17B8C0FC01E60FF71F9C0173
:1031500022503109E217F30708F4ACC0D9010D91F0
:103160001C91119706171707B0F00530110508F4E8
:103170009FC0C80104978617970708F499C00250AA
:103180001109061B170B019311936D937C93CF01CB
:103190000E94FF178DC05B01A01AB10A4C01800E7E
:1031A000911EA0910105B091020540E050E0E12C94
:1031B000F12C109709F44AC0A815B905D1F56D9006
:1031C0007C901197630182E0C80ED11CCA14DB0405
:1031D00080F1A3014A195B096A0182E0C80ED11C83
:1031E0001296BC9012971396AC91B5E0CB16D10411
:1031F00040F0B282A38351834083D9016D937C93C5
:103200000AC00E5F1F4FC301800F911FF901918308
:103210008083EB2DFA2FE114F10431F0D7011396DE
:10322000FC93EE93129744C0F0930205E0930105DE
:103230003FC08D919C9111974817590708F4AC0134
:103240007D0112960D90BC91A02DB3CF8091FF040B
:103250009091000588159905E1F446175707C8F4C1
:103260008091010190910201009741F48DB79EB7C2
:103270004091050150910601841B950BE817F90751
:10328000C8F4F0930005E093FF04F90171836083B3
:103290000FC0CB010E946A177C01009759F0A8016A
:1032A000BE010E946619CE010E94FF17C70104C02B
:1032B000CE0102C080E090E0CDB7DEB7EEE00C9426
:1032C000FA1981E090E0F8940C94201AFB01DC01DB
:1032D00002C001900D9241505040D8F70895FB0173
:1032E000DC0101900D920020E1F70895DB018F933E
:1032F0009F930E94C719BF91AF91A29F800D911D0E
:10330000A39F900DB29F900D11240895A1E21A2E53
:10331000AA1BBB1BFD010DC0AA1FBB1FEE1FFF1F79
:10332000A217B307E407F50720F0A21BB30BE40BC9
:10333000F50B661F771F881F991F1A9469F7609510
:103340007095809590959B01AC01BD01CF010895CA
:10335000052E97FB1EF400940E94BF1957FD07D05D
:103360000E94861907FC03D04EF40C94BF195095A7
:103370004095309521953F4F4F4F5F4F0895909561
:103380008095709561957F4F8F4F9F4F08950E9454
:10339000111AA59F900DB49F900DA49F800D911DB3
:1033A00011240895B7FF0C94C7190E94C719821BF6
:1033B000930B08952F923F924F925F926F927F925C
:1033C0008F929F92AF92BF92CF92DF92EF92FF9235
:1033D0000F931F93CF93DF93CDB7DEB7CA1BDB0BE1
:1033E0000FB6F894DEBF0FBECDBF09942A88398886
:1033F00048885F846E847D848C849B84AA84B9848D
:10340000C884DF80EE80FD800C811B81AA81B98198
:10341000CE0FD11D0FB6F894DEBF0FBECDBFED01AC
:103420000895A29FB001B39FC001A39F700D811D9D
:103430001124911DB29F700D811D1124911D0895BD
:1034400010E0C9E6D0E004C0FE010E946417219696
:0A345000CA36D107C9F7F894FFCF80
:10345A00FF000003058000010000000601C400C44B
:10346A0000D000C4000000F70006010400080008AC
:10347A0000040004000400040004002C0100001FE2
:10348A001C1F1E1F1E1F1F1E1F1E1F0800000000DC
:10349A00390B2A0F020BE00AF40A800B0000000025
:1034AA00C801980190017C016D016C0100000000C7
:1034BA00AD002A0F010119019400AC0000000000C0
:1034CA00AD002A0F010119019400AC00446F6E652A
:1034DA0020746F646179203A2800206872200020E5
:1034EA006D6F7265206D696E0031206D6F72652097
:1034FA006D696E7574652100446F6F722072656C18
:10350A006F636B6564210043616E27742072656C7A
:10351A006F636B2C202020646F6F72207374696C48
:10352A006C206F70656E2E00446F6F7220756E6C22
:10353A006F636B65642100564D4450565F317C3190
:10354A005F564D4450560D0A00446F6F72206C6FDF
:10355A00636B656400446F6F7220756E6C6F636B8A
:10356A00656400446F6F72206C6F636B6564210041
:10357A0043616E74206C6F636B20646F6F722020DE
:06358A006F70656E210068
:00000001FF
